:020000040000fa
:080000000002040000000000f2
:020000040000fa
:04000800760300007b
:020000040000fa
:04000c008803000065
:020000040000fa
:040010009803000051
:020000040000fa
:040014007e03000067
:020000040000fa
:040018009003000051
:020000040000fa
:04001c002c040000b0
:020000040000fa
:04002000a003000039
:020000040000fa
:040024002c040000a8
:020000040000fa
:040028002c040000a4
:020000040000fa
:04002c002c040000a0
:020000040000fa
:040030002c0400009c
:020000040000fa
:040034002c04000098
:020000040000fa
:040038002c04000094
:020000040000fa
:04003c002c04000090
:020000040000fa
:040040002c0400008c
:020000040000fa
:040044002c04000088
:020000040000fa
:040048002c04000084
:020000040000fa
:04004c002c04000080
:020000040000fa
:040050002c0400007c
:020000040000fa
:040054002c04000078
:020000040000fa
:040058002c04000074
:020000040000fa
:04005c002c04000070
:020000040000fa
:040060002c0400006c
:020000040000fa
:040064002c04000068
:020000040000fa
:040068002c04000064
:020000040000fa
:04006c002c04000060
:020000040000fa
:040070002c0400005c
:020000040000fa
:040074002c04000058
:020000040000fa
:040078002c04000054
:020000040000fa
:04007c002c04000050
:020000040000fa
:040080002c0400004c
:020000040000fa
:040084002c04000048
:020000040000fa
:040088002c04000044
:020000040000fa
:04008c002c04000040
:020000040000fa
:040090002c0400003c
:020000040000fa
:040094002c04000038
:020000040000fa
:040098002c04000034
:020000040000fa
:04009c002c04000030
:020000040000fa
:0400a0002c0400002c
:020000040000fa
:0400a4002c04000028
:020000040000fa
:0400a8002c04000024
:020000040000fa
:0400ac002c04000020
:020000040000fa
:0400b0002c0400001c
:020000040000fa
:0400b4002c04000018
:020000040000fa
:0400b8002c04000014
:020000040000fa
:0400bc002c04000010
:020000040000fa
:0400c0002c0400000c
:020000040000fa
:0400c4002c04000008
:020000040000fa
:0400c8002c04000004
:020000040000fa
:0400cc002c04000000
:020000040000fa
:0400d0002c040000fc
:020000040000fa
:0400d4002c040000f8
:020000040000fa
:0400d8002c040000f4
:020000040000fa
:0400dc002c040000f0
:020000040000fa
:0400e0002c040000ec
:020000040000fa
:0400e4002c040000e8
:020000040000fa
:0400e8002c040000e4
:020000040000fa
:0400ec002c040000e0
:020000040000fa
:0400f0002c040000dc
:020000040000fa
:0400f4002c040000d8
:020000040000fa
:0400f8002c040000d4
:020000040000fa
:0400fc002c040000d0
:020000040000fa
:040100002c040000cb
:020000040000fa
:040104002c040000c7
:020000040000fa
:040108002c040000c3
:020000040000fa
:04010c002c040000bf
:020000040000fa
:040110002c040000bb
:020000040000fa
:040114002c040000b7
:020000040000fa
:040118002c040000b3
:020000040000fa
:04011c002c040000af
:020000040000fa
:040120002c040000ab
:020000040000fa
:040124002c040000a7
:020000040000fa
:040128002c040000a3
:020000040000fa
:04012c002c0400009f
:020000040000fa
:040130002c0400009b
:020000040000fa
:040134002c04000097
:020000040000fa
:040138002c04000093
:020000040000fa
:04013c002c0400008f
:020000040000fa
:040140002c0400008b
:020000040000fa
:040144002c04000087
:020000040000fa
:040148002c04000083
:020000040000fa
:04014c002c0400007f
:020000040000fa
:040150002c0400007b
:020000040000fa
:040154002c04000077
:020000040000fa
:04015800f0030000b0
:020000040000fa
:04015c002c0400006f
:020000040000fa
:040160002c0400006b
:020000040000fa
:040164002c04000067
:020000040000fa
:040168002c04000063
:020000040000fa
:04016c002c0400005f
:020000040000fa
:040170002c0400005b
:020000040000fa
:040174002c04000057
:020000040000fa
:040178002c04000053
:020000040000fa
:04017c002c0400004f
:020000040000fa
:040180002c0400004b
:020000040000fa
:040184002c04000047
:020000040000fa
:040188002c04000043
:020000040000fa
:04018c002c0400003f
:020000040000fa
:040190002c0400003b
:020000040000fa
:040194002c04000037
:020000040000fa
:040198002c04000033
:020000040000fa
:04019c002c0400002f
:020000040000fa
:0401a0002c0400002b
:020000040000fa
:0401a4002c04000027
:020000040000fa
:0401a8002c04000023
:020000040000fa
:0401ac002c0400001f
:020000040000fa
:0401b0002c0400001b
:020000040000fa
:0401b4002c04000017
:020000040000fa
:0401b8002c04000013
:020000040000fa
:0401bc002c0400000f
:020000040000fa
:0401c0000e04000029
:020000040000fa
:0401c4002c04000007
:020000040000fa
:0401c8002c04000003
:020000040000fa
:0401cc002c040000ff
:020000040000fa
:0401d0002c040000fb
:020000040000fa
:0401d4002c040000f7
:020000040000fa
:0401d8002c040000f3
:020000040000fa
:0401dc002c040000ef
:020000040000fa
:0401e0002c040000eb
:020000040000fa
:0401e4002c040000e7
:020000040000fa
:0401e8002c040000e3
:020000040000fa
:0401ec002c040000df
:020000040000fa
:0401f0002c040000db
:020000040000fa
:0401f4002c040000d7
:020000040000fa
:0401f8002c040000d3
:020000040000fa
:0401fc002c040000cf
:020000040000fa
:040200002c040000ca
:020000040000fa
:040204002c040000c6
:020000040000fa
:040208002c040000c2
:020000040000fa
:04020c002c040000be
:020000040000fa
:040210002c040000ba
:020000040000fa
:040214002c040000b6
:020000040000fa
:040218002c040000b2
:020000040000fa
:04021c002c040000ae
:020000040000fa
:040220002c040000aa
:020000040000fa
:040224002c040000a6
:020000040000fa
:040228002c040000a2
:020000040000fa
:04022c002c0400009e
:020000040000fa
:040230002c0400009a
:020000040000fa
:040234002c04000096
:020000040000fa
:040238002c04000092
:020000040000fa
:04023c002c0400008e
:020000040000fa
:040240002c0400008a
:020000040000fa
:040244002c04000086
:020000040000fa
:040248002c04000082
:020000040000fa
:04024c002c0400007e
:020000040000fa
:040250002c0400007a
:020000040000fa
:040254002c04000076
:020000040000fa
:040258002c04000072
:020000040000fa
:04025c002c0400006e
:020000040000fa
:040260002c0400006a
:020000040000fa
:040264002c04000066
:020000040000fa
:040268002c04000062
:020000040000fa
:04026c002c0400005e
:020000040000fa
:040270002c0400005a
:020000040000fa
:040274002c04000056
:020000040000fa
:040278002c04000052
:020000040000fa
:04027c002c0400004e
:020000040000fa
:040280002c0400004a
:020000040000fa
:040284002c04000046
:020000040000fa
:040288002c04000042
:020000040000fa
:04028c002c0400003e
:020000040000fa
:040290002c0400003a
:020000040000fa
:040294002c04000036
:020000040000fa
:040298002c04000032
:020000040000fa
:04029c002c0400002e
:020000040000fa
:0402a0002c0400002a
:020000040000fa
:0402a4002c04000026
:020000040000fa
:0402a8002c04000022
:020000040000fa
:0402ac002c0400001e
:020000040000fa
:0402b0002c0400001a
:020000040000fa
:0402b4002c04000016
:020000040000fa
:0402b8002c04000012
:020000040000fa
:0402bc002c0400000e
:020000040000fa
:0402c0002c0400000a
:020000040000fa
:0402c4002c04000006
:020000040000fa
:0402c8002c04000002
:020000040000fa
:0402cc002c040000fe
:020000040000fa
:0402d0002c040000fa
:020000040000fa
:0402d4002c040000f6
:020000040000fa
:0402d8002c040000f2
:020000040000fa
:0402dc002c040000ee
:020000040000fa
:0402e0002c040000ea
:020000040000fa
:0402e4002c040000e6
:020000040000fa
:0402e8002c040000e2
:020000040000fa
:0402ec002c040000de
:020000040000fa
:0402f0002c040000da
:020000040000fa
:0402f4002c040000d6
:020000040000fa
:0402f8002c040000d2
:020000040000fa
:0402fc002c040000ce
:020000040000fa
:040300002c040000c9
:020000040000fa
:040304002c040000c5
:020000040000fa
:040308002c040000c1
:020000040000fa
:04030c002c040000bd
:020000040000fa
:040310002c040000b9
:020000040000fa
:040314002c040000b5
:020000040000fa
:040318002c040000b1
:020000040000fa
:04031c002c040000ad
:020000040000fa
:040320002c040000a9
:020000040000fa
:040324002c040000a5
:020000040000fa
:040328002c040000a1
:020000040000fa
:04032c002c0400009d
:020000040000fa
:040330002c04000099
:020000040000fa
:040334002c04000095
:020000040000fa
:100400002f7d22000eff26000e0188000000000054
:10041000000020000000e000020032000001200087
:100420002002880014000700210107000000e000fe
:1004300003003a0020f022000100200002003700f3
:100440000000200001002000810f70000100320038
:100450000f000700000020000000e0000200320052
:100460000000020000000000da1502000000000099
:100470000040da000000fe00400520000000e0001f
:1004800002003200002020009001880000000600d9
:10049000a1028800800478000000eb001f003700f4
:1004a000e284440054a0b4009905ba00e2844400f8
:1004b00054a0b4009906ba00e284440054a0b400e9
:1004c0000006eb00476fde00fd07b200ae018800ba
:1004d000636ce10003003a000ad801000000eb0061
:1004e0000e003700606ce10008003a00004deb00a0
:1004f0000a05e800020039003420ec000af0a000f0
:100500008b05e900f9ff3e00040037006168e10057
:10051000010032000086eb000b00070019c7ba008b
:100520001905ba000e04e00003003a000a00e000da
:10053000dbff3a0000000600fe07b200ae028800b2
:100540008a047800f5ff37000cd0a300e20f4d00bd
:100550001c00390089027800354dba000a05e80010
:10056000020039003420ec000af0a0008b05e900fd
:100570000f003200254dba000a05e80002003900dc
:100580003420ec000af0a0008b05e90008003200de
:100590000c00e0000600320015cdba000a05e800a4
:1005a000020039003420ec000af0a0008b05e900bd
:1005b0008984e80054a0b4000b00e000e2ff3a0098
:1005c000000006009902ba00055d78008b05e9007d
:1005d000f7ff3200c82ade00055d78008b05e900d0
:1005e000f3ff32000c00e000f1ff320019ddba0029
:1005f000eeff37005e3804000000000056380400ab
:10060000000000004e3804000000000042380400e2
:10061000000000009a36040000000000a03604002c
:1006200000000000a436040000000000a83604000a
:1006300000000000a029040000000000aa28040017
:10064000000000001c29040000000000662a0400cd
:1006500000000000ae20040000000000a420040000
:100660000000000068390400000000006a3904003e
:10067000000000006c390400000000006e39040026
:10068000000000007039040000000000723904000e
:1006900000000000341b040000000000421b0400a6
:1006a000000000005620040000000000b61f0400f7
:1006b000000000006e1d040000000000d81e0400b1
:1006c00000000000fe09040000000000840904008e
:1006d00000000000340d040000000000e80d0400dc
:1006e000000000009e150400000000003600f80025
:1006f000c028a9000000eb002b1b07003600f80003
:100700002d1b0700c048a90010002000261b070071
:100710003600f800c068a90020002000221b070056
:100720003600f800c088a900300020001e1b07001a
:100730003600f800c608a900700020001a1b070048
:100740003600f80021468000001020000080600084
:100750000000e00003003200c508a900c00020002e
:10076000111b070021468000000028000080600067
:100770000000e00003003200c5e8a900800020006e
:10078000091b070021468000000220000080600055
:100790000000e00003003200c4a8a900900020007f
:1007a000011b070020468000700060000000e00090
:1007b00003003200c488a900a0002000fa1a070034
:1007c00020468000610060000000e000030032006d
:1007d000c408a900b0002000f31a0700ffff37008b
:1007e0003600f800809fbe00829fbe00849fbe003e
:1007f000869fbe000000fa00390907000988a90099
:100800000080fa004f03be004f02be004f01be0041
:100810004f00be003600f900004006003600f80028
:10082000809fbe00829fbe00849fbe00869fbe0048
:100830000000fa001a0907000cc8a9000080fa009d
:100840004f03be004f02be004f01be004f00be006e
:100850003600f900004006000040da000000fe000b
:100860000800fa0010079800210798003207980046
:10087000be009000010f7800070037002e009000a6
:1008800010407800ae0090008100e8002107980039
:10089000341807001e0fe9001e0078000000e00079
:1008a000f6ff3a003e0090000080fa0000000600cb
:1008b000000005008f1fd1000c0007008f87e900a2
:1008c0000000e00000000600809feb00070007002a
:1008d0008f87e9000000e0000000060014002000ff
:1008e0003d003700f4ff2f003b003700889fbe001b
:1008f0008a9fbe008c9fbe000404be000605be0099
:10090000809fbe00829fbe00210007000406780081
:100910000800be000a01be001d0007008406780022
:100920004f03be004f02be008d4f76007fb0970090
:1009300013003300f0ff2f008b8f6b0006003b008d
:100940000d0666000c00a7000a00370007f0a6009d
:10095000100020000a003700880f5200898f5a00cb
:100960008a0f5b008b8f5b000300390010002000b2
:1009700001003e000000200007f0a7000000ea0090
:100980004f06be004f05be004f04be00000006002b
:1009900005ff270005826100070032000428e100fe
:1009a00001003200240005000600070001003a00a3
:1009b000440005000408050002000700f9ff3a00a2
:1009c000140005006f8261008102700085027100d1
:1009d0008502720000000600889fbe008a9fbe004c
:1009e000841f7800170007004f00780011003300c3
:1009f000f0ff2f00838f6c0006003b0004056500ac
:100a00000a00a7000800370009f0a6001000200027
:100a100008003700820f5400838f5c000300390008
:100a20001000200001003e000000200009f0a70097
:100a30000000ea004f05be004f04be000000e000c9
:100a4000000006000004be00060007000003be0010
:100a50000405be000200be0002000700844f7500be
:100a600000000600c70ade00f107b200f50fb20071
:100a700008003200e1cf4200020032000170a00005
:100a800024000500810f70000100320004080500f9
:100a900044000500810f700002003a0014000500b8
:100aa0008502e9000000400081c04800fcff3b00d7
:080ab0000170a0002400050004
:020000040000fa
:100ab80000000000a8aa000054550000fe7f0000b6
:100ac8000000000052d50000aa2a00000000000023
:100ad8000000000000000000a8aa000052d5000095
:100ae80054550000aa2a0000fe7f00000000000004
:100af800ffff0000fe09000084090000340d00001b
:100b0800e80d00009e150000000000000000000035
:100b180000000000000000000000000000000000cd
:100b28000100000012270000000000000000000083
:100b380053650000702000003238000020320000a9
:100b48003031000038310000303a00003435000000
:080b58003a35000034000000f2
:020000040000fa
:100b60001800fa00889fbe008a9fbe008c1f780084
:100b700000067800f4af9f0085b79f0096b79f00ee
:100b8000a7b79f002c709000ef4060000068a300a2
:100b90000b003200e4cf50003b003200e8cf5000a1
:100ba0004e0032000046eb000c4078004f06780003
:100bb0004f05be004f04be000080fa000000060092
:100bc0000058a30018003200e2cf50006700320046
:100bd0008c003e00e1cf5000f2ff3a008c6990009b
:100be0000c6090006fda97003c299000e10f5100f3
:100bf000250132000046eb0080cf5100eaff3400af
:100c000001467800844f5000e6ff35000c40780024
:100c10004f0678004f05be004f04be000080fa006a
:100c200000000600e6ff3700e2cf5000620032000d
:100c3000a6003e00e1cf5000daff3a008c69900038
:100c40000c6090006fda97003c299000e10f510092
:100c5000000132000046eb0080cf5100d2ff360089
:100c600001467800844f5000ceff39000c407800d8
:100c70004f0678004f05be004f04be000080fa000a
:100c800000000600ceff37004c109000dc109000f2
:100c90000c1490009c1490007fad97008fb59700c6
:100ca0003c2e9000e10f5600870132000801be0083
:100cb0000cff07000000e000baff34001cc0b300c6
:100cc0000801be000a00be0004ff07000000e000ab
:100cd000b5ff34000046eb00b3ff37004c10900026
:100ce000dc1090006c119000fc1190000c1490002e
:100cf0009c1490002c159000bc1590007faa9700c2
:100d00008fb297001fb39700afb39700b4b79f009f
:100d1000c5b79f00d6b79f00e7b79f003c2e900055
:100d2000e10f5600530132000802be000a03be0064
:100d3000e5fe07000000e0009aff34001cc0b3008d
:100d40000802be000a03be003fb09700cfb0970074
:100d50005fb19700efb19700d6fe07000000e000fa
:100d600091ff34000046eb008fff37004c119000dc
:100d70000c109000ffa99700bc289000e18f500054
:100d8000db0032000046eb00800f510086ff34008c
:100d90001cc0b300830f500082ff35000c40780068
:100da0004f0678004f05be004f04be000080fa00d9
:100db0000000060082ff37004c1190000c109000dc
:100dc000ffa99700bc289000e18f5000bb003200c3
:100dd0000046eb00800f510073ff36001cc0b300cb
:100de000830f50006fff39000c4078004f067800e9
:100df0004f05be004f04be000080fa000000060050
:100e00006fff3700e4cf50007a003200e8cf500087
:100e100064ff3a004c149000dc1490006c159000b4
:100e2000fc159000f8b79f0089bf9f009abf9f00f4
:100e3000abbf9f000c1090009c1090002c119000f4
:100e4000bc119000b4b79f00c5b79f00d6b79f00f4
:100e5000e7b79f00bc2a9000e18f5200ea00320001
:100e60000046eb007fb497008fbc97001fbd970032
:100e7000afbd97000040e10001c8e10002d0e100f1
:100e800003d8e10048ff34001cc0b3003fb2970014
:100e9000cfb297005fb39700efb397000400e10073
:100ea0000588e1000690e1000798e1003dff35006c
:100eb0000c4078004f0678004f05be004f04be007e
:100ec0000080fa00000006003dff3700e4cf50002c
:100ed00030003200e8cf500032ff3a004c1490004e
:100ee000dc1490006c159000fc159000f8b79f0082
:100ef00089bf9f009abf9f00abbf9f000c1090005e
:100f00009c1090002c119000bc119000b4b79f0071
:100f1000c5b79f00d6b79f00e7b79f00bc2a9000d7
:100f2000e18f52009d0032000046eb007fb4970035
:100f30008fbc97001fbd9700afbd97000040e10038
:100f400001c8e10002d0e10003d8e10016ff36003d
:100f50001cc0b3003fb29700cfb297005fb39700b9
:100f6000efb397000400e1000588e1000690e1007e
:100f70000798e1000bff39000c4078004f0678001d
:100f80004f05be004f04be000080fa0000000600be
:100f90000bff37004c129000dc1290000c109000f8
:100fa0009c1090007fab97008fb397003c29900076
:100fb000e10f51006a0032000046eb00800f520042
:100fc000818f5a00f8fe36001cc0b300860f500017
:100fd000878f5800f3fe39000c4078004f067800e8
:100fe0004f05be004f04be000080fa00000006005e
:100ff000f3fe37004c129000dc1290000c109000b1
:101000009c1090007fab97008fb397003c29900015
:10101000e10f5100430032000046eb00800f520008
:10102000818f5a00e0fe34001cc0b300860f5000d0
:10103000878f5800dbfe35000c4078004f067800a3
:101040004f05be004f04be000080fa0000000600fd
:10105000dbfe37000046eb0080cf5100d2fe3100ae
:1010600002467800844f5000cefe3e000c407800cf
:101070004f0678004f05be004f04be000080fa0006
:1010800000000600cefe37000046eb0080cf510086
:10109000c5fe3d0002467800844f5000c1fe3c0072
:1010a0000c4078004f0678004f05be004f04be008c
:1010b0000080fa0000000600c1fe37000046eb0089
:1010c000800f5100b8fe310001467800830f5000b8
:1010d000b4fe3e000c4078004f0678004f05be007d
:1010e0004f04be000080fa0000000600b4fe370086
:1010f0000046eb00800f5100abfe3d00014678003a
:10110000830f5000a7fe3c000c4078004f0678008b
:101110004f05be004f04be000080fa00000006002c
:10112000a7fe37000046eb00800f5200818f5a0067
:101130009dfe3d0002467800860f5000878f5800c4
:1011400098fe3c000c4078004f0678004f05be002a
:101150004f04be000080fa000000060098fe370031
:101160000046eb00800f5200818f5a008efe310046
:1011700002467800860f5000878f580089fe3e0097
:101180000c4078004f0678004f05be004f04be00ab
:101190000080fa000000060089fe37000046eb00e0
:1011a0007fb497008fbc97001fbd9700afbd97001d
:1011b0000040e10001c8e10002d0e10003d8e100f5
:1011c00079fe3100054678003fb29700cfb2970014
:1011d0005fb39700efb397000400e1000588e100da
:1011e0000690e1000798e1006efe3e000c4078009a
:1011f0004f0678004f05be004f04be000080fa0085
:10120000000006006efe37000046eb007fb497003a
:101210008fbc97001fbd9700afbd97000040e10055
:1012200001c8e10002d0e10003d8e1005efe3d000c
:10123000054678003fb29700cfb297005fb39700a2
:10124000efb397000400e1000588e1000690e1009b
:101250000798e10053fe3c000c4078004f067800f0
:101260004f05be004f04be000080fa0000000600db
:1012700053fe37000802be000a03be008dfd0700c2
:101280000000e00047fe3d000802be000a03be0069
:101290003fb09700cfb097005fb19700efb19700d4
:1012a00089fd07000000e0003efe35000c4078009c
:1012b0004f0678004f05be004f04be000080fa00c4
:1012c000000006003efe37000801be0083fd070057
:1012d0000000e00033fe3d000801be000a00be0031
:1012e00080fd07000000e0002efe35000c40780075
:1012f0004f0678004f05be004f04be000080fa0084
:10130000000006002efe37000088eb008000eb0096
:10131000110098000041eb00215098002100980036
:1013200032509800310098004250980041009800d7
:101330005250980051009800625098006100980047
:1013400072509800710098000258980001089800a7
:101350001258980023192100530898006022b80001
:101360006033b800041098001510980026109800fb
:101370003710980044109800551098006610980097
:101380007710980001189800227098002118980092
:101390006022b80034189800451898002278980008
:1013a0003278980061189800711898000120980010
:1013b00022c09800242098003520980044209800ee
:1013c0005520980042c8980074209800052898007d
:1013d000823821000300200012289800232898005a
:1013e00011002000312898006208980073089800c6
:1013f000818c8000c0089800000006000800fa00f8
:10140000889fbe008a9fbe008c9fbe0000067800a9
:101410002c189000e60f500019003e00e50f500018
:10142000370039008c1890002c7090006f406000dd
:10143000e24f5000800132002f013e00e14f50008a
:101440004c0132006fb29700ffb297000fbb9700bc
:101450009fbb97000c007800c1fd07000004e0006e
:101460001701320040002000201e98004f06be00e9
:101470004f05be004f04be000080fa0000000600c9
:10148000e70f500084003200e80f5000f7ff3a00e9
:101490007c189000ec1890000001e800721e980083
:1014a000810f5000f1ff39000000eb00701e980022
:1014b0002c7890000080fb008000eb004c21900015
:1014c000dc21900000004100818049004026980006
:1014d00051269800e00f5000e08f5800e3ff3500e0
:1014e00020002000201e98004f06be004f05be00c1
:1014f0004f04be000080fa0000000600e0ff370045
:10150000e20f5000a3003200e40f5000d60032007a
:10151000e10f5000d5ff3a007c189000ec189000c5
:101520000001e800721e9800810f50002d00390064
:101530000000eb00701e98003c199000cc19900040
:101540002c7890000080fb008000eb000000410040
:101550008180490084382100840f5000e08f5800ba
:10156000040036006033b800361e9800471e98000d
:101570006011b8008046eb008d83fb000040eb005b
:101580000703e800f283430006034300dc089000f1
:101590000082fb00ec027b00e5427a008570790056
:1015a00061014100e0814900321e9800431e98000d
:1015b0000040e800ecc07b00814f5000f3ff390091
:1015c0008d46e8003c78900080cf5600eaff390055
:1015d0007c2090008c289000820f5000838f580050
:1015e000e10036008c1890002c7090006f40600075
:1015f000e24f500018013200ca003e00e14f500097
:10160000ef0032000802be000a03be000c007800a2
:1016100053fd07000004e0009f0032004cc890001a
:101620000004e0009c0032002c209000bc209000c0
:10163000e00f5000e08f5800e60035003c189000a5
:10164000cc189000e00f5000e08f5800ee00320000
:101650007c1990000200e000f2003a002c79900022
:101660000281fb008001eb000200500083805800e3
:10167000402698005126980070002000201e9800f7
:101680004f06be004f05be004f04be000080fa00aa
:10169000000006007aff37007c189000ec189000dc
:1016a0000001e800721e9800810f50006fff3900a2
:1016b0000000eb00701e98003c199000cc199000bf
:1016c0002c7890000080fb008000eb0000004100bf
:1016d0008180490084382100840f5000e08f580039
:1016e000040036006033b800361e9800471e98008c
:1016f0006011b8000044eb008883fb000040eb0061
:101700000703e800f283430006034300dc0890006f
:101710000082fb00ec027b00e5427a0085707900d4
:1017200061014100e0814900321e9800431e98008b
:101730000040e800ecc07b00814f5000f3ff39000f
:101740000844e8003c789000804f5400eaff3900dc
:101750004c209000dc209000020150008381580052
:101760002c209000bc209000800f5100818f5900e8
:1017700073003e000000eb00201e98004f06be00e4
:101780004f05be004f04be000080fa0000000600b6
:101790003bff37007c189000ec1890000001e80037
:1017a000721e9800810f5000260039000000eb00e7
:1017b000701e98003c199000cc1990000044eb007a
:1017c0008883fb000040eb000703e800f28343003e
:1017d00006034300dc0890000082fb00ec027b0063
:1017e000e5427a008570790061014100e08149009d
:1017f000321e9800431e98000040e800ecc07b00b9
:10180000814f5000f3ff39000844e8003c78900015
:10181000804f5400eaff39002c7890000080fb00d4
:101820008000eb00020140008381480080382100e5
:10183000800f5100e08f5900020036000000eb00dd
:10184000201e98000c2090000000e8000026980060
:101850004f06be004f05be004f04be000080fa00d8
:101860000000060006ff37000c2090000000e80092
:10187000002698007c1890000000e800701e980078
:101880004f06be004f05be004f04be000080fa00a8
:1018900000000600fafe3700481698005916980016
:1018a0006a1698007b1698004f06be004f05be00d2
:1018b0004f04be000080fa0000000600f0fe370072
:1018c0006fb09700ffb097000fb997009fb99700ce
:1018d00040169800511698006216980073169800ea
:1018e0004f06be004f05be004f04be000080fa0048
:1018f00000000600e2fe3700e44f500026003200f0
:10190000e84f5000cffe3a003102be002103be0076
:10191000e4b79f00f5b79f0086bf9f0097bf9f0069
:10192000c8fe3700e44f500022003200e84f50005c
:1019300034ff3a003104be002105be0031ff3700fc
:101940001c2a9000ac2a90000201420083814a00c8
:10195000820f5000838f5800c4fe39000000eb0056
:10196000201e980085ff370010c0b30040ce9800bd
:101970001cff3700114078000082fb008002eb0062
:101980006033b800e4b79f00f5b79f0086bf9f00a3
:1019900097bf9f00abfe37001102be006033b80056
:1019a000e4b79f00f5b79f0086bf9f0097bf9f00d9
:1019b000a4fe37001104be006055b80011ff3700c7
:1019c000114478000884fb008004eb006055b800e7
:1019d0000cff370040269800512698006000b800a0
:1019e000301e9800411e980080002000201e9800a4
:1019f0004f06be004f05be004f04be000080fa0037
:101a0000000006009efe37002c7890000080fb004e
:101a10008000eb001c299000ac29900000005100d0
:101a200081805900402698005126980070002000bf
:101a3000201e980012ff3700110078006102b800e4
:101a40006033b800e4b79f00f5b79f0086bf9f00e2
:101a500097bf9f007bfe3700110478008004eb00e5
:101a60006055b800e7fe370040719000824878006a
:101a7000307a90009440980040799000a2409800fd
:101a8000507a9000b440980060719000c240980075
:101a900030199000c0199000481add004811de008e
:101aa00002017200c819de00d2409800007990004f
:101ab000e2409800107a9000f4409800205990007d
:101ac0008248980050099000cf91de00481add004e
:101ad0004811de0002017200c819de009248980029
:101ae00050099000cf91de00a34898005009900063
:101af000cf91de004819de00b248980040c1900046
:101b0000c248980020219000b0219000481add00c2
:101b10004811de0002017200d248980060c19000b6
:101b2000e248980070c29000f448980000c9900004
:101b30008250980040219000d0219000481add008a
:101b40004811de00020172009250980020c99000f6
:101b5000a250980030ca9000b450980020d1900054
:101b6000c250980010299000a0299000481add006a
:101b70004811de0002017200c819de00d250980040
:101b800040d19000e250980050d29000f45098005c
:101b9000405990008258980060099000f009900028
:101ba000481add004811de0002017200c819de008b
:101bb0009258980060599000a25898007058900070
:101bc000b058980020c8b300c0589800d001050054
:101bd000ef02b000889fbe008a9fbe008c9fbe00af
:101be0008e1f78000004be0092f79f001ac0b30059
:101bf000e34f5100c6003600890678005d4078004a
:101c0000e84f5000c2003e000004e000c000320077
:101c10008000eb00211c98000040eb00317c980014
:101c2000012498006011b800321c9800431c9800f1
:101c3000b9419000c819dd00a94090008180fb00e7
:101c400081804100611c9800711c98006022b800de
:101c50006033b80044149800551498006614980036
:101c600077149800207c980021c0b30021c498000c
:101c700040cc98006022b800442498005524980075
:101c80001d04e0009d0232004ac0b3000046780007
:101c90008e3821008d017800890678009ff2970028
:101ca000e5e79f008a40e8000a80fb006d4078006d
:101cb000e14f5000de0032009c0031008c84fb00bc
:101cc0008180fb000900e80000004000818546009b
:101cd0001b4290000482fb008002eb00482bdd00d9
:101ce000c823de00870373004823dd002b429000e9
:101cf0008482fb00040020000602420087824a0022
:101d00006dc378000683fb008003eb0004024300f0
:101d100085824b00043478004b40900089044400d5
:101d2000a05498002879900002414000227c98003d
:101d3000a8c0900000c0400020c498000281fb00b1
:101d4000050009000207d80001005700cf80de001f
:101d5000102c9800212c9800664545000c46e800a0
:101d6000934f1600cfff3e008d0478008306780065
:101d70006fe3970096f79f008a80fb000a45e80012
:101d80000a80fb008a45e80069c678002c74980038
:101d900069407800e14f500079023200670131005c
:101da0008b81fb0003804400104290000482fb0002
:101db0008002eb00482bdd00c823de0087037300a0
:101dc0004823dd00204290008482fb0004002000b4
:101dd0000603420087834a0069c279000482fb003f
:101de0008002eb000602420087824a00041c980031
:101df000e4c545008bf79f006f476600e24f570030
:101e00007d02320098013e00e14f57004b003a003e
:101e10008ff397000782fb0069427a000482fb007f
:101e20008002eb006033b800041498001514980089
:101e300026149800371498000c04e0008701350040
:101e40008c4078000154a000217498000ff0970096
:101e5000644540008a81fb00838044001142900069
:101e60000482fb008002eb00482bdd00c823de006b
:101e7000870373004823dd00214090008082fb002f
:101e8000040020000603420087834a0069c07900ed
:101e90000082fb008002eb000602420087824a00bb
:101ea00031409000c800dd00000020000400400028
:101eb0008580480020249800312498002a120700c9
:101ec00070249800012c9800644045000080fb00bd
:101ed000694078000080fb00302c98006545450083
:101ee0001ff197008a4f5100350136000a85fb002b
:101ef00069407d00e14f5000710032009d4678003e
:101f00003d7c98001980fb00201c98000045eb00e8
:101f10000a4078004f0778004f06be004f05be000c
:101f20004f04be00ef02b10000000600e24f500077
:101f300025003200e34f5000090032001ac0b30000
:101f40000a4078004f0778004f06be004f05be00dc
:101f50004f04be00ef02b10000000600f3ff37009f
:101f60008180fb00818546002b4090003b42900021
:101f7000818c8000110178000200e000efff320048
:101f80004822dd000080fb00000242009200780041
:101f9000810f5200710032000100e000e7ff3200c3
:101fa000640041000001780090007800810f520029
:101fb0006a003200640040000100e000f9ff3a00ce
:101fc0001ac0b300deff37008180fb008185460028
:101fd0002b4090003b429000818c800011017800e2
:101fe0000200e000d5ff32004822dd000080fb0047
:101ff0000002420092007800810f5200b1003200ce
:102000000100e000cdff32006400410000017800d3
:1020100090007800810f5200aa0032006400400056
:102020000100e000f9ff3a001ac0b300c4ff370016
:102030008180fb006dc27800818546009b42900044
:10204000ab409000bb439000828c8000120378006c
:102050000600e00008003a00004078004f077800d2
:102060004f06be004f05be004f04be00ef02b10098
:1020700000000600adff3700c83bdd008180fb009b
:102080008183430096007800818f53005100320015
:102090000100e000f0ff320064004300000378001c
:1020a00090007800818f53004a00320064004000a5
:1020b0000100e000f9ff3a001ac0b300a0ff3700aa
:1020c00088189000287090006f406000e24f500028
:1020d0007b02320067023e00e14f50000e003200ea
:1020e0007fa097008fa897001fa99700afa997001e
:1020f00040149800511498006214980073149800ca
:102100009d4678003d7c98001980fb00201c9800bb
:102110000045eb007eff3700114078000082fb0095
:102120008002eb006033b800f4a79f0085af9f00ea
:1021300096af9f00a7af9f007fa097008fa8970042
:102140001fa99700afa99700401498005114980058
:102150006214980073149800e9ff37000100e00052
:1021600076ff3200920090000100e00073ff320021
:102170008c84fb000900e800000040001134780066
:102180004b40900089044400a054980028799000a6
:1021900002414000227c9800a8c0900000c040008e
:1021a00020c498000281fb00050009000207d80046
:1021b00001005700cf80de00102c9800212c9800e1
:1021c000664545000c46e800934f1600b5fe3e00fc
:1021d000e5fe37000100e00058ff320016009000d5
:1021e0000000e00055ff32009003780012039000d9
:1021f00016017800828f53000c0032000200e000cc
:102200004eff3200ec00430001037800110178001a
:10221000828f530005003200ec8040000200e00095
:10222000f9ff3a001ac0b30045ff37000200e00092
:1022300042ff32000600e00040ff32008c84fb00c9
:10224000c828dd000482fb00848040005602900014
:10225000f3b79f00040001008900e800818040007e
:1022600000b47800ffb197000000e00033ff3200b7
:102270004b40900089044400a054980028799000b5
:1022800002414000227c9800a8c0900000c040009d
:1022900020c498000281fb00050009000207d80055
:1022a00001005700cf80de00102c9800212c9800f0
:1022b000664545000c46e800934f160079fe3e0047
:1022c000a9fe37000100e0001cff320092009000e0
:1022d0000100e00019ff32008c84fb000900e800d7
:1022e00000004000013478004b4090008904440015
:1022f000a05498002879900002414000227c980068
:10230000a8c0900000c0400020c498000281fb00db
:10231000050009000207d80001005700cf80de0049
:10232000102c9800212c9800664545000c46e800ca
:10233000934f16005bfe3e008bfe3700e24f5000cd
:10234000f2003200e34f5000fcfe3a000b80fb002d
:1023500000804400a0429000b0419000808c80003a
:10236000100278001ac0b3000400e000e8fe32005a
:10237000c819dd008582fb00858241009401780048
:10238000838f5200880132000300e000e0fe32003b
:10239000640042008c4078001ff197000002780032
:1023a00090017800838f52007d013200640040006c
:1023b0000300e000f9ff3a001ac0b300e0fe370066
:1023c00088189000287090006f406000e24f500025
:1023d0004a01320036013e00e14f50000e0032004b
:1023e0003fa89700cfa897005fa99700efa9970093
:1023f00040149800511498006214980073149800c7
:102400009d4678003d7c98001980fb00201c9800b8
:102410000045eb00befe3700114078000082fb0053
:102420008002eb006033b800b4af9f00c5af9f00df
:10243000d6af9f00e7af9f003fa89700cfa89700b7
:102440005fa99700efa997004014980051149800d5
:102450006214980073149800e9ff37008ff097001a
:10246000014547007bfe3700e44f5700f100320082
:10247000e84f5700b1fe3a008ff097008180fb00d3
:10248000b1a79f00818544001b4090000082fb00a3
:102490008002eb006033b800c83bdd004835de0049
:1024a000870375004833dd00482dde000603750004
:1024b000c82add004825de00850275004822dd00bf
:1024c000b4b79f00c5b79f00d6b79f00e7b79f007e
:1024d0002b4090000082fb008002eb006033b800cc
:1024e0008603780005037800840278000002eb0080
:1024f0003fb09700cfb097005fb19700efb1970062
:102500000400400085804800060149008781490099
:10251000f0af9f0081b79f0092b79f00a3b79f00c5
:10252000bfa09700e9c278000580fb008000eb00a7
:102530006011b800b0b79f00c1b79f00d2b79f002d
:10254000e3b79f007faa97008fb297001fb3970051
:10255000afb397000002420081824a0002034b00a1
:1025600083834b00b4a79f00c5a79f00d6a79f00f9
:10257000e7a79f00bb4290000580fb008000eb00b6
:102580006011b800c811dd00480ade008301720046
:102590004809dd004802de0002017200c800dd00cb
:1025a0000000eb003fa29700cfa297005fa3970027
:1025b000efa397000000420081804a0002014b0017
:1025c00083814b00f0af9f0081b79f0092b79f00bf
:1025d000a3b79f00cb4290000580fb008000eb007a
:1025e0006011b8000001be006000b8007faa97002b
:1025f0008fb297001fb39700afb39700000042005f
:1026000081804a0002014b0083814b00b0a79f00ec
:10261000c1a79f00d2a79f00e3a79f00db429000c5
:102620000580fb008000eb006011b800c809dd00e8
:102630004802de00830172004801dd006000b8003e
:102640003fa29700cfa297005fa39700efa3970048
:102650000000420081804a0002014b0083814b0050
:10266000f0af9f0081b79f0092b79f00a3b79f0074
:10267000eb4290000580fb008000eb006011b80089
:10268000800178000001eb006000b8007faa97008d
:102690008fb297001fb39700afb3970000004200be
:1026a00081804a0002014b0083814b00b0b79f003c
:1026b000c1b79f00d2b79f00e3b79f007b42900055
:1026c0000482fb008002eb006033b800c823dd0009
:1026d0000003eb006022b80004024000858248003d
:1026e00006034900878349000414980015149800d4
:1026f0002614980037149800cffd37006bc0b30044
:1027000050002000410020009ffd37000b80fb009f
:1027100000804400a0429000b0419000808c800076
:10272000100278001ac0b3000400e000f8fd320087
:10273000c819dd008582fb00858241009401780084
:10274000838f52008e0032000300e000f0fd320063
:10275000640042008c4078001ff19700000278006e
:1027600090017800838f52008300320064004000a3
:102770000300e000f9ff3a001ac0b300f0fd370093
:102780008b80fb0069c678008180440091439000f3
:1027900021429000b1409000868c80009601780024
:1027a000004578000300e000d9fd3200c808dd00d4
:1027b0000482fb000482400093007800810f5200e5
:1027c000830032000100e000d1fd3200648041004e
:1027d0001ff197008001780090007800810f52006f
:1027e0007a003200640040000100e000f9ff3a0086
:1027f0001ac0b300d2fd37000b4578008a82fb0077
:1028000005824400144290004823dd0069c27a002a
:102810000482fb00040243008002eb006033b80036
:102820000414980015149800261498003714980082
:1028300081fd37000ff097008082fb000582440085
:10284000144390000683fb008003eb00483ddd004d
:10285000c835de008b0575004835dd002443900047
:102860008683fb00060020000a0543008b854b0091
:1028700069c37a000683fb008003eb000a03430070
:102880008b834b0034429000c822dd0004002000fe
:102890000602420087824a006033b80004149800a0
:1028a00015149800261498003714980062fd37001c
:1028b000e44f500021003200e84f5000c8fe3a00bb
:1028c0003102be002103be00b4af9f00c5af9f0020
:1028d000d6af9f00e7af9f003fa89700cfa8970013
:1028e0005fa99700efa99700401498005114980031
:1028f0006214980073149800c1fe3700110078002c
:102900006102b8006033b800b4af9f00c5af9f004c
:10291000d6af9f00e7af9f003fa89700cfa89700d2
:102920005fa99700efa997004014980051149800f0
:102930006214980073149800b1fe37001102be00b3
:102940006033b800b4af9f00c5af9f00d6af9f0003
:10295000e7af9f003fa89700cfa897005fa9970017
:10296000efa9970040149800511498006214980041
:1029700073149800a2fe37000146780092f79f007a
:102980001ac0b3000300e00061fd320014009000a3
:102990000000e0005efd3200001c980014fd3700ce
:1029a0000146780092f79f001ac0b3000300e000d0
:1029b00057fd3200140090000000e00054fd32008a
:1029c00010007800001c980009fd370092f79f0066
:1029d0001ac0b3000100e0004dfd320093029000e8
:1029e0000500e0004afd32001502780096019000d3
:1029f00093007800810f52000e0032000100e000c9
:102a000043fd32006c8041001ff197008001780087
:102a100090007800810f5200050032006c004000e9
:102a20000100e000f9ff3a001ac0b30044fd37008e
:102a300092f79f001ac0b3000100e00034fd32009d
:102a40000300e00032fd3200c838dd000c80fb00de
:102a500080804000d3019000050078000300010051
:102a6000001c98000000e00029fd3200287690004c
:102a7000dffc3700e44f500021003200e84f5000e7
:102a800097fd3a003102be002103be00f4a79f006b
:102a900085af9f0096af9f00a7af9f007fa09700d4
:102aa0008fa897001fa99700afa99700401498001e
:102ab00051149800621498007314980090fd370028
:102ac000110078006102b8006033b800f4a79f00dd
:102ad00085af9f0096af9f00a7af9f007fa0970094
:102ae0008fa897001fa99700afa9970040149800de
:102af00051149800621498007314980080fd3700f8
:102b00001102be006033b800f4a79f0085af9f009c
:102b100096af9f00a7af9f007fa097008fa8970058
:102b20001fa99700afa9970040149800511498006e
:102b3000621498007314980071fd370000000500be
:102b40000200fa00000f780000c027001e0060009d
:102b5000801988000080fa00000006000200fa00d8
:102b6000000f780000c027001e006000301b8800a6
:102b70000080fa00000006000200fa00000f780052
:102b800000c027001e006000901e88000080fa0030
:102b9000000006000000fa00501880000080fa00d3
:102ba000000006000000fa007feea8000080fa0096
:102bb000000006000000fa0083110700241107003e
:102bc0003e020700d7110700ac110700f40b070005
:102bd00000e42a00f1022000850e07000000eb004f
:102be0000033890076cea800030037000000000003
:102bf00001003700000000001a110700cb0b07008e
:102c0000a70b07000004e0000e003200f032810044
:102c10000000e00008003a0010002000f0328900b7
:102c200076eea8000000eb00e032890010c0b3008f
:102c300076f1b700030037000000eb00f0328900a6
:102c400076eea900a30b07000004e000e7ff3200c6
:102c5000d03281000000e000e6ff3a0010002000c2
:102c6000d0328900e4ff37000000fa00070c0700ab
:102c700020338900f0328100e10f500006003a0055
:102c80000000eb00aeff07000000eb00b3ff070001
:102c90000000eb00b8ff07000080fa00000006000b
:102ca0000000fa0070618000608b8800d0618000b5
:102cb000708b8800c0618000808b8800a0608000dd
:102cc000908b8800eb100700a0662200440c0700e0
:102cd000660007008c0b07000080fa000000060069
:102ce0000000fa007431ef00768ea900deff0700c5
:102cf000680e0700108b8800218b8800108b8000e5
:102d0000218b800000017800f08a8000018b800018
:102d10000000780000005100308b8800128b80008a
:102d2000238b8000f08a8000018b8000800f51008f
:102d3000818f59000a003100108b8000218b8000a8
:102d400000017800f08a8000018b8000000078008c
:102d50008000510000e42a0000804000308b880091
:102d6000108b8000218b8000f08a8800018b880006
:102d7000308b80007e010700318b8000b045200041
:102d8000808f500003003e00c0452000308b88003b
:102d900006003700318b8000008b2200808f5000ae
:102da00002003600008b2200308b88000033810047
:102db0000000e0000a003a0020338100800040005b
:102dc000c055280000804000100078008000780086
:102dd00050552d0000804000c08a88000800370050
:102de0002033810080004000c05628000080400051
:102df00090007800a0aa220000804000c08a8800cd
:102e00000080fa00000006000000fa0096ff0700ac
:102e1000003381000000e0000a003a002033810006
:102e200080004000c055280000804000100078005d
:102e30008000780050552d0000804000c08a880036
:102e4000080037002033810080004000c056280071
:102e50000080400090007800a0aa2200008040007e
:102e6000c08a88000080fa00000006000400fa0012
:102e7000889fbe00e0328100e30f50002a0032003c
:102e8000e30f500005003e000000e00008003200a3
:102e9000e10f500016003200c1003700e40f50006f
:102ea0008a003200e50f5000aa003200bc00370053
:102eb0008e0b07000000eb00c032890035ff0700d1
:102ec00040338900501880004200de003033890012
:102ed0000000eb0020338900b4000700c5000700a4
:102ee00010002000e03289007831ef00ac0037009c
:102ef000f0328100e10f500005003a001000200080
:102f0000c032890027ff070030002000e03289002e
:102f1000d0328100e10f50009a003a0040002000ba
:102f2000e03289009e003700a08b80000000e8009e
:102f3000a08b8800a18b8000800c2000000178000d
:102f4000050009008280d8008000fd000000e0003c
:102f500001003a00acff070043ff0700308b800000
:102f6000d100070050388100408b8800408b8000e2
:102f70000000e00008003200428b80001452200064
:102f8000d5002000048fbe001e02be00050009000f
:102f900042aad800d08a8800106180000000d100c9
:102fa000817020000180b900c10add004f04de00fd
:102fb00008847200cf8cde0008007800803eb000ec
:102fc000103389001037810070358900103381007b
:102fd000603589007135810060358100036b220006
:102fe000e26922004210070080358100508b880082
:102ff000003381000000e0000b003a00c08a80002e
:1030000080007800d08a800000804000c08a88005c
:10301000c08a800080007800508b8000c27022003f
:10302000580607000a003700c08a80008000780038
:10303000d08a800000805000c08a8800c08a80004a
:1030400080007800508b8000c27022004d0607007f
:10305000c07022003d0b0700d0328100e10f50000c
:1030600007003a000000eb00303389003033810064
:10307000430b07001d0b070040002000e0328900d1
:1030800076d1bf000004a2000004e0000800320076
:10309000a18b800030382000808f50000400360063
:1030a0007431ef0050002000e0328900768ea800d5
:1030b0007671ef00f03281000000e00033003a004a
:1030c00050002000e032890035003700d032810006
:1030d000e10f50000a003a00003381000000e000d8
:1030e00003003a001000200000338900020037007e
:1030f0000000eb00003389000000eb00d0328900b3
:10310000f0328100e10f50000c003a00128b800079
:10311000238b800020a1270001002000800f510098
:10312000818f59001b00360030002000e0328900fa
:103130007831ef00e10a070019003700f032810012
:103140000000e00015003a0010002000e032890085
:10315000130037000000eb00203389000000eb0073
:103160003033890030338100050b0700df0a070088
:103170000000eb00f032890076eea90000000000ac
:1031800007003700000000000500370000000000c5
:1031900003003700000000000100370000000000bd
:1031a0004f04be000080fa00000006000000fa0094
:1031b000d0cc200010358900100220002035890075
:1031c000e0fd270030358900e0fd2700403589000b
:1031d0000000eb00503589006000b800f034890031
:1031e000013589000000eb00803589000080fa007d
:1031f000000006000200fa000000eb00000f78005b
:1032000008003700710420001e804000800040004c
:1032100080652200008040008000eb0001087800fb
:103220001e0fe8001e007800ef0f5000f5ff36007b
:103230000000eb00203789006000b80030388900ba
:10324000413889000000eb00503889000000eb0095
:10325000000f780008003700310320001e80400076
:103260008000400080652200008040008000eb006c
:10327000010878001e0fe8001e007800ef0f5000d4
:10328000f5ff36000000eb00e03589006000b80073
:10329000f0368900013789000000eb001037890003
:1032a0000080fa00000006000400fa0010079800f1
:1032b000203781009e0090007004b00000024000a2
:1032c000806522000000420001087800203781005c
:1032d0000000e8002037890020378100ef0f500000
:1032e000020036000000eb00203789006000b800c3
:1032f00030388900413889000000eb00000f780069
:1033000016003700343881004538810071042000f0
:103310001e80400080004000806522000080400048
:1033200010007800cf80de00040040008580480057
:1033300030388900413889003038810041388100b7
:103340004c0add004401de0002017200c489de0087
:1033500002007800503889001e0fe8001e00780037
:10336000ef0f5000e7ff36000080fa000000060073
:103370000800fa001007980094358100a5358100f7
:103380001e009000cf80de000400400085804800d1
:1033900090358900a135890020338100e60f500067
:1033a00044003a0090358100a1358100000078008a
:1033b000d0358900d435810006a32100e711200013
:1033c00026079800370798002e039000be03900050
:1033d0000500090044bbd800cf80de00b03589006d
:1033e000c13589006000b80090358900a135890099
:1033f000e4358100b0358100c1358100800078005e
:1034000030032000040040000002400080652200dc
:103410000000420001087800e03581000000e8006b
:10342000e0358900e0358100ef0f500002003600e2
:103430000000eb00e03589006000b800f03689003c
:10344000013789000000eb00000f780016003700fc
:10345000f436810005378100370320001e804300c9
:10346000800040008065220000804000100078004d
:10347000cf80de000400400085804800f0368900df
:1034800001378900f0368100013781004c0add00e8
:103490004401de0002017200c489de0002007800ef
:1034a000103789001e0fe8001e007800ef0f500053
:1034b000e7ff36000080fa00000006000800fa006e
:1034c00000192000000f78000000eb003007980082
:1034d0000000eb00100798000000eb0020079800a8
:1034e000020a0700e0312100801f8800e03121003e
:1034f000201c8800e0312100701a88004f0037003e
:103500009e009000310798007019800011800a0019
:10351000000000000080fb0010079800be00900033
:103520001e009000808f5000440032001e0090006a
:103530000000e00041003a001e0fe9002e0090005c
:103540000000e80020079800e01520009e007800a9
:10355000808f500002003a003183a9000b00370031
:10356000a00f20009e007800808f500002003a00db
:103570006783a90005003700600920009e007800dd
:10358000808f500001003a00d383a9002e009000e4
:10359000f90f500029003600911e80000000210024
:1035a000008060000000e00008003a00801f8000fa
:1035b000e20f500004003600801f80000080e90008
:1035c000801f880001003700f023ef00311b8000ce
:1035d00000002100008060000000e00008003a00c8
:1035e000201c8000e20f500004003600201c8000e8
:1035f0000080e900201c8800010037008423ef00d0
:103600008119800000002100008060000000e000bf
:1036100008003a00701a8000e20f500004003600e3
:10362000701a80000080e900701a880001003700dd
:103630004e23ef000000eb00200798001e007800ea
:103640000000e000aeff3a00f023ef008423ef001b
:103650004e23ef00d3a3a90067a3a90031a3a900bb
:103660000080fa000000060021c0b300414098002d
:10367000b000900012c2b3009240980090009000f9
:103680000104010050419000d1c2b300814f5100ac
:10369000ba003600e2c2b30042409800b001900088
:1036a0000041eb0092419800b001900054c0b3007b
:1036b000a4419800b0019000b2419800828c800033
:1036c000a20990003001900043419800828c800054
:1036d000a209900030019000c819de005341980003
:1036e00030019000d041900063419800300190007b
:1036f00003c1b300734198003001900023c8b300a8
:10370000034998003001900033c5b3001349980075
:1037100030019000f2c1410023499800300190002f
:10372000ebc1410033499800b001900022c3b300bf
:10373000c2499800b001900084c3b300d4499800f6
:10374000b0019000e2499800b001900002c1e90088
:10375000f2499800b002900013c3b300835298005e
:10376000b0029000945298003002900023529800ca
:10377000b0019000b25198003001900043c3b300f3
:1037800043519800300190008341e8005351980064
:10379000828c8000b20990000300e0007e003200bd
:1037a00032099000b000900012417800e250980079
:1037b000818c800031099000b0009000124190008f
:1037c000f2509800818c800031099000b000900088
:1037d0002241900082589800818c8000310990002d
:1037e000b00090004241900092589800818c800077
:1037f00031099000b000900052419000a25898000a
:10380000818c800031099000b000900072419000de
:10381000b2589800818c800031099000b00090006f
:1038200002499000c2589800818c800031099000b4
:10383000b000900012499000d2589800818c80000e
:1038400031099000b000900022499000e2589800a1
:10385000818c800031099000b000900032499000c6
:10386000f2589800818c800031099000b0009000df
:103870004249900082609800818c8000310990005c
:10388000b00090006249900092609800818c8000a6
:1038900031099000b000900072499000a260980039
:1038a000818c800031019000b0009000b2609800df
:1038b000818c800041019000b0009000c2609800af
:1038c000818c800041019000b00090004811de0022
:1038d000d2609800818c800051019000e10190003d
:1038e000b0009000e2609800818c8000510190004f
:1038f000e1019000b0009000481add004811de00a0
:1039000002017200c819de00f2609800818c80000c
:1039100051019000e1019000b00090008368980090
:10392000818c800051019000e1019000b000900076
:103930004819de0092689800828c8000cf91de00ea
:10394000b0009000a2689800b0009000c81ade0095
:10395000481bdd004812de0004027300b4689800c2
:10396000b0009000c3689800b00090004819de00d5
:10397000d2689800900090000104010021c0b300bb
:1039800041409800b000900052c1b30092409800ae
:103990009000900001040100300190002161980026
:1039a0003001900011619800300190000161980091
:1039b00030019000715998003001900061599800d1
:1039c0003001900051599800300190004159980001
:1039d0003001900031599800300190002159980031
:1039e0003001900011599800300190000159980061
:1039f00030019000715198003001900061519800a1
:103a0000818c800031019000b0009000b26098007d
:103a1000818c800041019000b0009000c26098004d
:103a2000818c800041019000b00090004811de00c0
:103a3000d2609800818c800051019000e1019000db
:103a4000b0009000e2609800818c800051019000ed
:103a5000e1019000b0009000481add004811de003e
:103a600002017200c819de00f2609800818c8000ab
:103a700051019000e1019000b0009000836898002f
:103a8000818c800051019000e1019000b000900015
:103a90004819de0092689800828c8000cf91de0089
:103aa000b0009000a2689800b0009000c81ade0034
:103ab000481bdd004812de0004027300b468980061
:103ac000b0009000c3689800b00090004819de0074
:103ad000d26898009000900001040100881f7800cf
:103ae00000047800b8009000214290008103780023
:103af00057407800828c8000920278000500e00038
:103b0000880032004822dd000080fb0000024200f5
:103b100095017800830f5200130032000300e0008b
:103b20000800320064804200800278009001780032
:103b3000830f52000c003200640040000300e000dc
:103b4000f9ff3a0000c4b30021c0b300414498001b
:103b5000804b780098009000080078000100010078
:103b60004f047800000006000300e000f5ff32007b
:103b700015009000a20190000300e0001a0032003e
:103b8000a20290008001eb00950f1200120032009b
:103b9000a2029000430020001500e00074003200f3
:103ba000a2029000e5827900848f52000a00320060
:103bb000a202900064834100e58279000500e000e4
:103bc0000500320086017800a2029000e5827900ab
:103bd000848f5200f6ff3a0022029000648279003e
:103be0000400e0003b003a00920190000300e00076
:103bf0006500320010037800120290008001eb0093
:103c0000940f130012003200120290001400e00022
:103c10000f003200c300200012029000648279007d
:103c2000860f52000a00320012029000ec8241001e
:103c3000648279000400e00005003200850178000c
:103c40001202900064827900860f5200f6ff3a005b
:103c500012029000648279000400e0001300320038
:103c600012019000830141004841900063415100de
:103c7000e3804000c3019000030001000004e00065
:103c800030003a0021c0b30041449800b8009000d1
:103c90009040980098009000080078000100010012
:103ca0004f04780000000600afff370020c0b300cb
:103cb0004044980010c4b300804b780098009000f6
:103cc00008007800010001004f04780000000600a1
:103cd000a5ff370022019000830141004841900078
:103ce00063415100e3804000930190000300010014
:103cf0000004e0009aff320020c0b3004044980066
:103d00003800900021c4b300114098009800900042
:103d100008007800010001004f0478000000060050
:103d200091ff370030c4b30021c0b3004144980074
:103d3000804b780098009000080078000100010096
:103d400087ff370020c0b30040449800380090003f
:103d500041c1b3001140980098009000080078001d
:103d6000010001004f047800000006007eff3700cc
:103d70008001eb0022029000648279000400e000e0
:103d800099ff3200d3ff370020c0b30040449800b1
:103d900040c4b300804b7800980090000800780081
:103da000010001004f047800000006006eff37009c
:103db000881f780000047800380390008680e800af
:103dc0009142780056407800838c8000130278007e
:103dd0000400e00053003200c82add000080fb0030
:103de0008082420014017800828f5200130032005a
:103df0000200e00008003200640042000002780087
:103e000010017800828f52000c00320064004000e4
:103e10000200e000f9ff3a0000c4b30021c0b30083
:103e200041449800004b780098009000080078000a
:103e3000010001004f047800000006000200e000cd
:103e4000f5ff320014009000130190000200e00022
:103e50003c00320090037800130290000001eb0058
:103e6000948f130012003200130290001400e0003f
:103e70000f003200c200200013029000640279009b
:103e8000870f52000a00320013029000ec0241003a
:103e9000640279000400e0000500320005017800aa
:103ea0001302900064027900870f5200f6ff3a0077
:103eb00013029000640279000400e0000f00320059
:103ec0009301900002814100320190000200010044
:103ed00000c0e80040449800380090008040eb00ab
:103ee000114098009800900008007800010001003f
:103ef0004f04780000000600d0ff370020c0b30058
:103f00004044980010c4b300004b78009800900023
:103f100008007800010001004f047800000006004e
:103f2000c6ff370030c4b30021c0b300414498003d
:103f3000004b780098009000080078000100010014
:103f4000bcff370020c0b3004044980040c4b30019
:103f5000004b7800980090000800780001000100f4
:103f60004f04780000000600b4ff3700b000900056
:103f700051417800e24f5100380032000c00360009
:103f8000e44f51003f0032001e003100330020009a
:103f9000828c8000330198000041eb008248780059
:103fa00021c0b3004140980090009000010401003e
:103fb0000204e0000a003a008001eb00828c8000dd
:103fc000330198000041eb008248780021c0b30023
:103fd000414098009000900001040100f4ff370078
:103fe000e14f51001300320022c2b3008248780032
:103ff00021c0b300414098009000900001040100ee
:10400000ebff3700e54f5100f7ff3a005300200067
:10401000828c8000330198000041eb0082487800d8
:1040200021c0b300414098009000900001040100bd
:10403000dfff370013002000828c800033019800de
:104040000041eb008248780021c0b3004140980055
:104050009000900001040100d5ff370023002000ec
:10406000828c8000330198000041eb008248780088
:1040700021c0b3004140980090009000010401006d
:10408000cbff370043002000828c80003301980072
:104090000041eb008248780021c0b3004140980005
:1040a0009000900001040100c1ff3700b0009000b3
:1040b0000041eb0092409800818c8000310190001b
:1040c000b0009000a240980031c0b3004140980079
:1040d000900090000104010022c0b300424098000b
:1040e00030019000114198009000900001040100ff
:1040f00081762200630320008181410042b32100c8
:1041000082287800838f5000fdff3a00a1762200bc
:1041100041009800000006004000900021b42100fa
:1041200001087800610522001100980061fb210060
:1041300021009800e1d621002110980081ed210096
:1041400011109800000006001100200011089800ce
:104150008000eb000108980000000600e48747009b
:10416000889fbe008a9fbe008c9fbe008e1f780075
:1041700000047800980c90005ac5b3003b00200062
:10418000e18f540015003a0058009000b0009000f4
:10419000010001000004e000230032000808900044
:1041a000e20f50000501320057003e000000e00021
:1041b0009f003a004a5498005054980058009000cc
:1041c000100178008a40780002000100090c980074
:1041d000980c9000e18f5400ebff32000900e000e2
:1041e00014003a0058009000a00090000100010067
:1041f0000004e0000f003200580090009000900092
:1042000001000100f8009000e28f5000b60032007b
:1042100017003e000100e00063003a0051c5b30002
:10422000814f500018013200980c90000900e00006
:10423000ecff32006a064400808c8000c0089000c9
:104240000100e00004003200c0089000a1189000b6
:10425000e48f50004a0132004f0778004f06be003d
:104260004f05be004f04be004f00b1000000060025
:10427000e48f50008000320085003900e58f500047
:10428000040032000000eb0070049800980c9000cd
:10429000e6ff3700c850900052c5b30082cf5000ef
:1042a00010003200e2cf50000e003200814f50006b
:1042b00010003a003800900010407800fa4f50008b
:1042c000f6003e000080fb00c800900000004000a7
:1042d000e10078000800780001000100980c9000cf
:1042e000d2ff370081c0ea0041549800814f50004e
:1042f000f0ff320031c1b3000800780076ff0700fc
:10430000980c9000c9ff3700e40f50008500320080
:104310008c003900e50f5000050032000000eb0072
:10432000100c9800700498008004eb00adff37007b
:10433000c850900050c5b30080cf50000d0032002f
:10434000e2cf50000b0032005800900010017800be
:104350000200010058009000d00090000100010010
:104360000000eb00100c9800700498008004eb0033
:104370009cff370081c0ea0041549800580090002b
:10438000100178000200010058009000d000900059
:10439000010001000000eb00100c98007004980070
:1043a0008004eb008fff3700e18f5000b5ff3a002b
:1043b0000004e0001b003200d8409000814f500004
:1043c000db003e0052c5b3008240400041549800db
:1043d000404498005954980021002000710498002e
:1043e00082407800814f500002003200e24f5000be
:1043f0008dff3a0084f1b70020002000108c880067
:104400004000200070049800980c900087ff37004f
:1044100051c5b3004218210012417800814f51006c
:10442000cb00320079049800980c90007fff370091
:10443000e10f5000b9ff3a00c8409000485090008a
:10444000014040004054980058009000100178004e
:1044500002000100484090008a4f50008300320063
:10446000e24f50008100320020002000000c980034
:10447000980c900042ff37000004e000e4ff3a008f
:10448000108c800070049800980c900067ff370033
:10449000c850900080c0400041549800d85090000f
:1044a0008180fb003801900000f17800d850900026
:1044b0008140e800515498004841900082cf50005c
:1044c0004d00390051c5b300814f500078003200d3
:1044d000e24f500076003200500020007004980037
:1044e000980c900051ff3700c848900080cf5000d2
:1044f000ccff3a00485090000140400040549800e2
:1045000050c5b30080cf500081003200e2cf500090
:104510007f0032003000200070049800980c90005a
:1045200042ff370058009000100178008040eb00f7
:1045300002000100108c8000000c9800980c900084
:104540000fff3700d85090008180fb0038009000aa
:1045500081004000485090001140400040549800b5
:10456000580090001001780091407800020001008e
:10457000d85090000180fb008001e8004841900085
:104580000281fb00828f5100270035003801900026
:10459000624078008a4f500054003200e24f5000d1
:1045a0005200320050002000000c98008140e800ca
:1045b00051549800980c9000f1fe3700c8489000c4
:1045c000485090000140400040549800580090002e
:1045d0001001780002000100484890008a4f500006
:1045e0001c003200e24f50001a0032000b0c980001
:1045f000980c9000e2fe370051c5b300814f500087
:1046000002003200e24f5000c2ff3a0084f1b700ce
:1046100030002000108c88004000200070049800ba
:10462000980c900001ff370038019000624078003c
:104630008a4f500025003200e24f50002300320024
:104640000b0c98008140e80051549800980c9000a1
:10465000cbfe370084f1b7001b8c8800400020009f
:10466000000c9800980c9000c5fe370084f1b7004c
:1046700020002000108c880040002000000c9800d2
:10468000980c9000befe37004054980010002000a7
:1046900070049800980c9000e4fe370011c2b3003b
:1046a000080078008cfe0700980c9000dffe3700b1
:1046b00084f1b70050002000108c880040002000da
:1046c00070049800980c9000d8fe370084f1b70071
:1046d0001b8c880040002000000c98008140e800fe
:1046e00051549800980c9000a5fe370084f1b70053
:1046f00050002000108c880040002000000c980022
:104700008140e80051549800980c90009cfe3700be
:10471000401821000148780030002000108c8800eb
:104720004000200070049800980c9000bffe3700f5
:1047300079049800380090000048eb0051c1b300a4
:104740000800780064fe0700980c9000b7fe370060
:10475000d8409000814f5000f5ff3e0052c5b30095
:1047600082404000415498004044980059549800b9
:104770002000200070049800980c9000abfe3700d9
:1047800040089000a0c490008984fb00e3844400aa
:1047900058009000c0009000010001000080fb0064
:1047a000808f540007003d00808c800040099000fd
:1047b000c008900072199000e1189000810f51001c
:1047c0000d003100308c8000418c80006100400081
:1047d000e0804800308c8800418c88004f077800ca
:1047e0004f06be004f05be004f04be004f00b10093
:1047f000000006009efe3700400890008000eb009d
:1048000071189800580090001001780021c0b30082
:104810000200010058009000818c8000c1089000c7
:10482000a1c0900010017800020001005800900023
:10483000c848900010017800020001005800900064
:10484000818c8000c10890008120900010017800c8
:104850000200010058009000818c8000c108900087
:1048600081209000c808de001001780002000100dd
:10487000808c8000c0099000c00890004009900022
:1048800023c29000c84990008341420083c1e800e0
:104890008120900081c0410092c5900081c54500f3
:1048a0000007eb008004eb008e00e80081bf9f0052
:1048b00072074700818640004008900060807e00bb
:1048c00060c57c001c007800100178008a407800e8
:1048d000020001008ac545008904e800808c800040
:1048e000c0089000e1407f008180fb00818f540070
:1048f000f1ff39000fbf9700c0089000b178900019
:104900008180fb00810f5700e6ff3900e2cf5500a0
:104910000b00320058009000100178008b407800a6
:10492000020001004f0778004f06be004f05be0091
:104930004f04be004f00b100000006004cfe3700df
:10494000dbcfb30058009000100178008b40780056
:1049500002000100f3ff3700310098005240980038
:1049600043489800e10a220001087800410a220029
:10497000110098008000eb00110898007100980069
:10498000000006004e00fa00889fbe008a9fbe000d
:104990008c9fbe00200f9800310f9800420f9800a6
:1049a0007038210030079800ae08900090ed260086
:1049b000808f50000200340090ed2600200f9800f8
:1049c0003e0890000000e000f1003500be089000b5
:1049d00040552500808f50009e003e00be0890008c
:1049e00090aa2200808f50004c003e00be0890002c
:1049f00041079800a1aa22004e00900000805000bc
:104a0000500798005e0090004600de0000407800ed
:104a10000080fb008000400000002100008040007a
:104a200010007800600798004e0090004600de00fd
:104a3000004078000080fb00800040000000210062
:104a4000008040001000780070079800be009000c1
:104a50002e0890000180b900c109dd004f01de0081
:104a600002817100520f98004f89de00620f98009a
:104a7000de099000030f98008e0890006e009000f1
:104a80000180b900c109dd004f01de000281710023
:104a9000720f98004f89de0002179800fe099000ff
:104aa000630798008e0890007e0090000180b90096
:104ab000c109dd004f01de0002817100121798006c
:104ac0004f89de00221798009e119000730798000e
:104ad000be0090006e009000808050007e0090002c
:104ae000008050000000d100100f9800ee009000f0
:104af0007e009000808040001e089000008f4000e3
:104b0000fe0090001e0890000080400010079800f2
:104b10009e0890002107980080013700be08900091
:104b200060552d000080400040079800a1aa220097
:104b30004e00900000805000500798005e009000ea
:104b40004600de00004078000080fb00800040004e
:104b500000002100008040001000780060079800ed
:104b60004e0090004600de00004078000080fb0010
:104b7000800040000000210000804000100078000c
:104b800070079800be0090002e0890000180b900c8
:104b9000c109dd004f01de0002817100321798006b
:104ba0004f89de0042179800be119000030f980055
:104bb0008e0890006e0090000180b900c109dd00f0
:104bc0004f01de0002817100521798004f89de000c
:104bd00062179800de119000630798008e0890001d
:104be0007e0090000180b900c109dd004f01de00a8
:104bf00002817100721798004f89de00021f980031
:104c0000fe11900073079800be0090006e009000a7
:104c1000808050007e009000008050000000d10095
:104c2000100f9800ee0090001e089000008f4000ca
:104c3000ee0090007e009000808040001e089000f2
:104c400000804000100798009e08900021079800ff
:104c500032013700be089000b0aa2a000080400050
:104c600040079800a1aa22004e009000008050004a
:104c7000500798005e0090004600de00004078007b
:104c80000080fb0080004000000021000080400008
:104c900010007800600798004e0090004600de008b
:104ca000004078000080fb008000400000002100f0
:104cb000008040001000780070079800be0090004f
:104cc0002e0890000180b900c109dd004f01de000f
:104cd00002817100121f98004f89de00221f980088
:104ce0009e199000030f98008e0890006e009000af
:104cf0000180b900c109dd004f01de0002817100b1
:104d0000321f98004f89de00421f9800be199000a4
:104d1000630798008e0890007e0090000180b90023
:104d2000c109dd004f01de0002817100521f9800b1
:104d30004f89de00621f9800de199000730798000b
:104d4000be0090006e009000808050007e009000b9
:104d5000008050000000d100100f98009e089000c5
:104d6000010f7800ee0090007e00900080804000ef
:104d70001e0890000080400010079800fe00900080
:104d80001e0890000080400020079800e3003700d4
:104d9000be08900040552d00808f50009b003e00c3
:104da000be08900090aa2a00808f50004f003e005d
:104db000be089000000028000080400040079800d6
:104dc000a1aa22004e0090000080500050079800d9
:104dd0005e0090004600de00004078000080fb008e
:104de000800040000000210000804000100078009a
:104df000600798004e0090004600de0000407800fa
:104e00000080fb0080004000000021000080400086
:104e10001000780070079800be0090002e089000e7
:104e20000180b900c109dd004f01de00028171007f
:104e3000721f98004f89de0002279800fe1990002b
:104e4000030f98008e0890006e0090000180b9005a
:104e5000c109dd004f01de000281710012279800b8
:104e60004f89de00222798009e219000630798005a
:104e70008e0890007e0090000180b900c109dd001d
:104e80004f01de0002817100322798004f89de0059
:104e900042279800be21900073079800be00900042
:104ea0006e009000808050007e00900000805000d6
:104eb0000000d100100f98009e089000010f7800ac
:104ec000ee0090001e08900000804000100798003f
:104ed000ee0090007e009000808040001e08900050
:104ee00000804000200798008c003700be0890002a
:104ef000605525000080400040079800a1aa2200cc
:104f00004e00900000805000500798005e00900016
:104f10004600de00004078000080fb00800040007a
:104f20000000210000804000100078006007980019
:104f30004e0090004600de00004078000080fb003c
:104f40008000400000002100008040001000780038
:104f500070079800be0090002e0890000180b900f4
:104f6000c109dd004f01de00028171005227980067
:104f70004f89de0062279800de219000030f980021
:104f80008e0890006e0090000180b9004109dd009c
:104f90004f06de000c067100cf8ede006c07980015
:104fa0008e0890007e0090000180b900c109dd00ec
:104fb0004f05de000a857100cf8dde007a0798006c
:104fc000be0090006e009000808050007e00900037
:104fd000008050000000d100100f9800fe009000eb
:104fe0001e089000008f40009e0890001107980056
:104ff000ee0090007e009000808040001e0890002f
:10500000008040002007980044003700be08900050
:10501000b0aa22000080400040079800a1aa220008
:105020004e00900000805000500798005e009000f5
:105030004600de00004078000080fb008000400059
:1050400000002100008040001000780060079800f8
:105050004e0090004600de00004078000080fb001b
:105060008000400000002100008040001000780017
:1050700070079800be0090002e0890000180b900d3
:105080004109dd004f04de0008047100cf8cde0012
:10509000080f98008e0890006e0090000180b90003
:1050a000c109dd004f03de0006837100cf8bde00f7
:1050b000660798008e0890007e0090000180b9007d
:1050c0004109dd004f02de0004027100cf8ade00dc
:1050d00074079800be0090006e0090008080500021
:1050e0007e009000008050000000d100100f98005a
:1050f000ee0090007e009000808040001e0890002e
:10510000008f40009e09900013079800ee00900069
:105110001e08900000804000200798004e08900074
:10512000ae009000010878004e0890001e0190002b
:10513000120098004e0890009e017800230098000d
:105140004f06be004f05be004f04be000080fa00af
:1051500000000600881f78000004780038019000e5
:105160008280e8001180fb004800dd0012419000c1
:105170000281fb000200400010037800838c800055
:10518000130290000001eb00940f13001200320094
:10519000130290001400e0000f003200c200200053
:1051a0001302900064027900860f52000a00320058
:1051b00013029000ec024100640279000400e00058
:1051c00005003200050178001302900064027900a6
:1051d000860f5200f6ff3a00130290006402790035
:1051e0000400e0000e0032009301900002814100b3
:1051f000320190000200010000c0e8004044980025
:10520000380090008040eb0011409800980090001a
:1052100008007800010001004f047800000006003b
:1052200011c4b30008007800abfb07004f047800fe
:1052300000000600faff3700881f7800000478009d
:10524000b8009000214190004811dd00114090000d
:105250000080fb000000410010037800838c800078
:10526000130290000001eb00940f130012003200b3
:10527000130290001400e0000f003200c200200072
:105280001302900064027900860f52000a00320077
:1052900013029000ec024100640279000400e00077
:1052a00005003200050178001302900064027900c5
:1052b000860f5200f6ff3a00130290006402790054
:1052c0000400e00018003200930190008281410048
:1052d0004841900063415100e3804000c3019000c9
:1052e000030001000004e00009003a0021c0b300ff
:1052f00041449800b80090009040980098009000b9
:1053000008007800010001004f047800000006004a
:1053100041c1b300080078006ffb07004f0478001c
:1053200000000600faff370011c4b300080078003f
:1053300069fb07004f04780000000600f4ff370007
:10534000881f78003001900002047800b24290007b
:10535000424390000582fb008483e800d041900026
:105360008381fb0051c1b300838f53000c003e00ca
:10537000a2419000c819dd00924090008180fb009e
:1053800081814100e24f530008003200e44f530096
:105390003300320041c1b300e14f53002500320019
:1053a0004dfb07004f047800000006000400e000f9
:1053b000170032008000eb008180e8001344780081
:1053c00008f17800300190000101410033037800ba
:1053d0004833de0016419800810f52000b00360062
:1053e000300190008180e8001344780008f17800d3
:1053f0003001900001014100330378004833de00a2
:1054000016419800810f5200f5ff3e0030049000d5
:1054100085c2e800454098008040eb0011449800a8
:1054200090009000010001004f0478000000060089
:10543000deff37000400e000f5ff32008000eb00e3
:105440000101410033437800264198008100e800c3
